S00E0000737475646F692E737265637E
S11300000C9434000C943E000C943E000C943E007E
S11300100C943E000C943E000C943E000C943E0064
S11300200C943E000C943E000C943E000C943E0054
S11300300C943E000C943E000C943E000C943E0044
S11300400C943E000C943E000C943E000C943E0034
S11300500C943E000C943E000C943E000C943E0024
S11300600C943E000C943E0011241FBECFEFD8E048
S1130070DEBFCDBF0E94F1000C94FE000C94000082
S1130080CF93DF9300D0CDB7DEB78983998197FBF7
S1130090992790F98A8190FB80F98A83998196FB4C
S11300A0992790F98A8190FB81F98A83998195FB3C
S11300B0992790F98A8190FB82F98A839981929594
S11300C091708A8190FB83F98A83998193FB9927A4
S11300D090F98A8190FB84F98A83998192FB99270C
S11300E090F98A8190FB85F98A839981969591701C
S11300F08A8190FB86F98A8399818A8190FB87F9AA
S11301008A838A810F900F90DF91CF910895AF92E7
S1130110BF92CF92DF92EF92FF920F931F93CF93F0
S1130120DF931F92CDB7DEB78983C980C7FACC2489
S1130130C0F8A980B980D980E980F9809981898142
S1130140A6FA002700F910E0000F111FB5FAAA273C
S1130150A0F9B0E0AA0FBB1FAA0FBB1FA02BAC29AC
S1130160D4FAEE27E0F9F0E0EE0FFF1FEE0FFF1FC9
S1130170EE0FFF1FEA2BE3FA662760F970E0629541
S11301807295707F7627607F76276E2BF2FA44276C
S113019040F950E0440F551F42955295507F542723
S11301A0407F5427462B91FB222720F930E000247E
S11301B0369527950794369527950794322F202D49
S11301C0242B879588278795822B0F90DF91CF91D9
S11301D01F910F91FF90EF90DF90CF90BF90AF9061
S11301E0089585E00E94400083E00E94870085E036
S11301F00E94400083E00E948700F9CFF894FFCF6B
S9030000FC
